:1000000002308A000E2A00000A108A100A118207A4
:10001000C034F934A434B034993492348234F8348E
:10002000803490344E244127A0274E00C422202142
:10003000412A2022C12A0001201020102010201067
:10004000201020102010201000012010201020105F
:10005000201020102010201020100001201020104F
:10006000201020102010201020102010000120103F
:10007000201020102010201020102010201000012F
:10008000D624452ACE20CD22D3220001D8244E10DA
:100090004324C127000145274726C9294800C82213
:1000A0004C264F00C722D22641275900C8204C2693
:1000B0004F004E244127A0274E00C4222021412A70
:1000C0002022C12A0000293084008313000803196C
:1000D00076280630F800F701F70B6C28F80B6B2830
:1000E0007B30F700F70B7228800B692808002F1867
:1000F0007B2808127C280816831608128312AF1872
:1001000083288812842888168316881283122F1950
:100110008B2808138C280817831608138312AF192D
:100120009328881394288817831688130000831255
:100130000814831608100330F700F70B9D2883126C
:1001400008108316081083120800B00183160816E1
:1001500000308312081A0130B0048316881600306C
:100160008312881A0130F7000310F70D7708B004E6
:100170008316081700308312081B0130F700F70DB3
:10018000F70DFC30F7057708B004831688170030A8
:100190008312881B0130F700F70DF70DF70DF830CB
:1001A000F7057708B0043008F80008008316081037
:1001B0008810081183128810831688100816881674
:1001C0000817881783120815831608110000831278
:1001D00008148316081000008312A5207808AF00C9
:1001E00008108316081000008312081483160810E4
:1001F000F928FA2800008312A5207808AE0008101C
:1002000083160810081288120813881383122F0E01
:10021000F700F030F70577082E04F8007808AE00F4
:10022000AE1F14298316DE28AC08031D1929881077
:100230001A29881483168810000083120811831667
:1002400008110000831208108316081083122D0E67
:10025000AE000F30AE052E08AF0077202D080F3905
:10026000AE00AF00772008002830A5000C30A600B3
:100270000130A7000630A80008108316081083126A
:10028000881083168810831208118316081108122B
:100290008812081388130810881008110F30831271
:1002A000A90063200130A4002408033C031C60293A
:1002B0000330AF0077200530A9006320A40A542939
:1002C0000230AF0077200530A9006320A401240884
:1002D000033C031C7729253024078400831300087E
:1002E000A900AC012908AD00D620A40A67298A110B
:1002F0000A12312A290B7D2980294030AA00812940
:10030000AA0101302802AA072A088038AB00AC01F4
:100310002B08AD00D62008002708073A03199A29B0
:100320000B3A03199F29063A0319A729023A031920
:10033000AD29B2290130A800A9007A21B729AC0162
:100340000130AD00D6200230A9006320B72901306A
:10035000A8000230A9007A21B729AC011030AD0005
:10036000D620B7290130AC002708AD00D620080000
:100370000B08A4008B13831603178C170C140000B2
:10038000000083120313A41B8B1703170C087F397B
:1003900003190C2A0313A40003170D080313A50067
:1003A00003170F080313A6002408A7008C212508B3
:1003B00003178D000313260803178F0003130B0880
:1003C000A7008B13831603178C170C140000000072
:1003D00083120313A71B8B1703170C0D0E0D7F3908
:1003E00003190C2A0313A40003170D080313A50017
:1003F00003170F080313A6002408A7008C21250863
:1004000003178D000313260803178F008D0A0319A5
:100410008F0A0313B82903170313080003081F39B1
:10042000830020140130A100A301A2018316031749
:100430000908C039890003131F129F1200300317E7
:100440008800831287018801890183130030831695
:10045000031386008800091489140915891583126D
:1004600034290630A8000130A9007A211230031780
:100470008D0000308F000313B8210430A800023033
:10048000A9007A21163003178D0000308F00031366
:10049000B82183168601FF30831286008316091463
:1004A00083120918782A1430A900632083160914CE
:1004B00083120918782A0130A006A800A9007A2121
:1004C0001C3003178D0000308F000313B82101305A
:1004D000A8000230A9007A21253003178D000030D2
:1004E0008F000313B821831609148312091C732A81
:1004F0002018082B8316891483128918AB2A14300C
:10050000A90063208316891483128918AB2A01304D
:10051000A800A9007A212E3003178D0000308F002B
:100520000313B8210130A8000230A9007A21373026
:1005300003178D0000308F000313B8212108033CFE
:10054000031DA52A0130A100A62AA10A8316891439
:100550008312891CA62A210BC62A0430A800013068
:10056000A9007A21403003178D0000308F0003135B
:10057000B8210530A8000230A9007A2146300317BF
:100580008D0000308F000313B821FF2A2108023CA0
:10059000031DE32A0530A8000130A9007A214B3061
:1005A00003178D0000308F000313B8210630A80018
:1005B0000230A9007A214F3003178D0000308F00E0
:1005C0000313B821FF2A2108033C031DFF2A05302D
:1005D000A8000130A9007A21523003178D000030A5
:1005E0008F000313B8210630A8000230A9007A2139
:1005F000563003178D0000308F000313B8212108F7
:100600000420A40083168601831224088600252B6B
:100610000630A8000130A9007A21593003178D0057
:1006200000308F000313B8210430A8000230A90065
:100630007A215D3003178D0000308F000313B8213D
:0E06400083168601FF30831286004E2A630067
:04400E00E22F000796
:00000001FF
;PIC16F887
;CRC=4A62  CREATED="01-Apr-26 20:22"
