:1000000002308A00742A000050244F274710D3275B
:100010003A1020102010A012B0185500D32720212C
:100020004E1D2010201020102518342655002D308C
:1000300084008313000803192A280630F800F7010A
:10004000F70B2028F80B1F287B30F700F70B26282A
:10005000800B1D28080034182F2808123028081695
:10006000831608128312B418372888123828881685
:1000700083168812831234193F2808134028081762
:10008000831608138312B419472888134828881741
:100090008316881300008312091483160910033095
:1000A000F700F70B512883120910831609108312E9
:1000B0000800B5018316081600308312081A0130B3
:1000C000B5048316881600308312881A0130F700B1
:1000D0000310F70D7708B504831608170030831254
:1000E000081B0130F700F70DF70DFC30F705770816
:1000F000B5048316881700308312881B0130F7007F
:10010000F70DF70DF70DF830F7057708B50435084A
:10011000F80008008316091089100911831289104C
:100120008316891008168816081788178312091570
:1001300083160911000083120914831609100000A8
:10014000831259207808B4000910831609100000A2
:100150008312091483160910AD28AE2800008312FB
:1001600059207808B3000910831609100812881264
:10017000081388138312340EF700F030F705770860
:100180003304F8007808B300B31FC82883169228F8
:10019000B108031DCD288910CE2889148316891033
:1001A000000083120911831609110000831209103F
:1001B000831609108312320EB3000F30B3053308D3
:1001C000B4002B2032080F39B300B4002B200800F4
:1001D0002830A4000C30A5000130A6000630A7008E
:1001E000091083160910831289108316891083124F
:1001F00009118316091108128812081388130910AF
:10020000891009110F308312AD0017200130A300AF
:100210002308033C031C14290330B4002B200530B1
:10022000AD001720A30A08290230B4002B200530A6
:10023000AD001720A3012308033C031C2B29243005
:100240002307840083130008A800B1012808B20026
:100250008A20A30A1B298A110A12972A2E0B3129F8
:1002600034294030AF003529AF0101302D02AF07EE
:100270002F088038B000B1013008B2008A20080091
:100280002C08073A03194E290B3A03195329063A49
:1002900003195B29023A0319612966290130AD006F
:1002A000AE002E216B29B1010130B2008A2002304C
:1002B000AD0017206B290130AD000230AE002E21B9
:1002C0006B29B1011030B2008A206B290130B100D6
:1002D0002C08B2008A2008000B08A4008B13831698
:1002E00003178C170C140000000083120313A41BC7
:1002F0008B170318A32903170C087F390313A400D5
:1003000003170D080313A50003170F080313A60016
:100310002408AC004021250803178D00031326088C
:1003200003178F0003130B08A7008B138316031703
:100330008C170C140000000083120313A71B8B17EB
:10034000A30BA329C22903170C0D0E0D7F3903132C
:10035000A40003170D080313A50003170F080313C8
:10036000A6002408AC004021250803178D000313C4
:10037000260803178F008D0A03198F0A0310031331
:10038000A30B6C2908002608F80125020318CB29C5
:100390002508F700D729F7010830A700A50DF70DAC
:1003A000260877020318F700F80DA70BCE290800DE
:1003B00078082308A5006430A600C3217708A300AD
:1003C00078083030031DEB29A41CF229A419F22966
:1003D000241A2030EE29A41124122414F8077808D6
:1003E000AC0040212308A5000A30A600C3217708ED
:1003F000A30078083030031D032AA419072A241CFF
:10040000072A241A2030F8077808AC004021303041
:10041000A3072308AC0040218A110A12AA2AAB01C3
:100420000408AA002B10831B2B14240EF038A600FE
:10043000A607E23EA700323EA90024080F39A7070D
:10044000A707A907E93EA800A807A807230E0F39A8
:10045000A807A907A80DA90DA909A90D23080F39F7
:10046000A907A60D0730A5000A30A907A803031C99
:10047000352AA807A703031C392AA707A603031CCC
:100480003D2AA607A503031C412A253084008313B7
:1004900007302A052A1384072930040203192A1772
:1004A0000008F700031D5C2A2A1B5C2A2A1A6E2A00
:1004B000AA195C2A20305F2AAA152A123030F707C1
:1004C000A4010408A3002410831B24147708AC00A3
:1004D000402123088400831324188317840A2A1FC9
:1004E0004C2A8A110A12C02A03081F3983000230DD
:1004F000A0000430A200D230A1008316031709081F
:10050000C039890003131F129F120030031788009F
:100510008312870188018901831300308316031336
:10052000880009108910091189118312E828013007
:10053000AD00AE002E21043003178D0000308F0077
:1005400003100F300313A3006C212008A300083010
:10055000A400D8290130AD000230AE002E210E30AB
:1005600003178D0000308F0003100C300313A3001D
:100570006C21093084002208A4002108A3000F2A5E
:04058000972A630053
:04400E00E22F000796
:00000001FF
;PIC16F887
;CRC=3D0A  CREATED="01-Apr-26 17:11"
