:1000000002308A00032A0000D322C3274E22A021F7
:10001000CF2A4E2A45290000201000002B308400F2
:1000200083130008031921280630F800F701F70BA5
:100030001728F80B16287B30F700F70B1D28800BCC
:1000400014280800311826280812272808168316B5
:1000500008128312B1182E2888122F2888168316AA
:100060008812831231193628081337280817831687
:1000700008138312B1193E2888133F288817831666
:100080008813000083120914831609100330F70047
:10009000F70B4828831209108316091083120800F1
:1000A000B2018316081600308312081A0130B20418
:1000B0008316881600308312881A0130F700031067
:1000C000F70D7708B2048316081700308312081B57
:1000D0000130F700F70DF70DFC30F7057708B20493
:1000E0008316881700308312881B0130F700F70D44
:1000F000F70DF70DF830F7057708B2043208F8006D
:1001000008008316091089100911831289108316BB
:100110008910081688160817881783120915831680
:1001200009110000831209148316091000008312BC
:1001300050207808B10009108316091000008312BE
:10014000091483160910A428A52800008312502042
:100150007808B000091083160910081288120813D5
:1001600088138312310EF700F030F705770830045A
:10017000F8007808B000B01FBF2883168928AE08A1
:10018000031DC4288910C52889148316891000000E
:1001900083120911831609110000831209108316B6
:1001A000091083122F0EB0000F30B0053008B100D7
:1001B00022202F080F39B000B1002220080028307B
:1001C000A7000C30A8000130A9000630AA000910D1
:1001D000831609108312891083168910831209115E
:1001E0008316091108128812081388130910891040
:1001F00009110F308312AB000E200130A600260833
:10020000033C031C0B290330B10022200530AB0056
:100210000E20A60AFF280230B10022200530AB00D4
:100220000E20A6012608033C031C2229273026079E
:10023000840083130008AB00AE012B08AF008120BF
:10024000A60A12298A110A12222A2B0B28292B29E5
:100250004030AC002C29AC0101302A02AC072C083C
:100260008038AD00AE012D08AF00812008002908BC
:10027000073A031945290B3A03194A29063A031983
:100280005229023A031958295D290130AA00AB000E
:1002900025216229AE010130AF0081200230AB0080
:1002A0000E2062290130AA000230AB00252162290C
:1002B000AE011030AF00812062290130AE00290864
:1002C000AF00812008000B08A6008B1383160317CC
:1002D0008C170C140000000083120313A61B8B174D
:1002E00003170C087F390319B7290313A600031756
:1002F0000D080313A70003170F080313A80026080F
:10030000A9003721270803178D00031328080317B6
:100310008F0003130B08A9008B13831603178C1788
:100320000C140000000083120313A91B8B17031782
:100330000C0D0E0D7F390319B7290313A6000317FF
:100340000D080313A70003170F080313A8002608BE
:10035000A9003721270803178D0003132808031766
:100360008F008D0A03198F0A0313632903170313E0
:1003700008002908F80128020318C1292808F700F5
:10038000CD29F7010830AA00A80DF70D290877023A
:100390000318F700F80DAA0BC429080078082608EE
:1003A000A8006430A900B9217708A6007808303089
:1003B000031DE129A71CE829A719E829271A2030DD
:1003C000E429A71127122714F8077808A900372174
:1003D0002608A8000A30A900B9217708A6007808E5
:1003E0003030031DF929A719FD29271CFD29271ADB
:1003F0002030F8077808A90037213030A6072608F2
:10040000A9003721080003081F398300A501A401B2
:10041000831603170908C039890003131F129F129E
:100420000030031788008312870188018901831334
:1004300000308316031388000910891009118911EF
:100440008312DF280230AA000130AB0025210430DE
:1004500003178D0000308F00031363210730AA00BB
:100460000230AB002521A2012208053C031C5E2AB4
:10047000A3012308093C031C5C2A2208A6000830BB
:10048000A700CE212308A6000830A700CE21073000
:10049000AA000230AB0025210C3003178D0000307C
:1004A0008F00031363210430A600FA30AB000E2046
:1004B000A60B552AA30A392AA20A342A222A630043
:04400E00E22F000796
:00000001FF
;PIC16F887
;CRC=26D0  CREATED="01-Apr-26 17:46"
