:1000000002308A00032A0000D322C3274E22A021F7
:10001000CF2A4E2A452900002A3084008313000885
:1000200003191F280630F800F701F70B1528F80B05
:1000300014287B30F700F70B1B28800B12280800D0
:10004000301824280812252808168316081283124F
:10005000B0182C2888122D2888168316881283122F
:10006000301934280813352808178316081383120B
:10007000B0193C2888133D28881783168813000080
:1000800083120914831609100330F700F70B462872
:10009000831209108316091083120800B101831618
:1000A000081600308312081A0130B104831688162E
:1000B00000308312881A0130F7000310F70D77081B
:1000C000B1048316081700308312081B0130F700B3
:1000D000F70DF70DFC30F7057708B1048316881784
:1000E00000308312881B0130F700F70DF70DF70D74
:1000F000F830F7057708B1043108F80008008316D6
:1001000009108910091183128910831689100816A5
:10011000881608178817831209158316091100001D
:100120008312091483160910000083124E207808E8
:10013000B0000910831609100000831209148316F9
:100140000910A228A328000083124E207808AF00CF
:1001500009108316091008128812081388138312D5
:10016000300EF700F030F70577082F04F800780814
:10017000AF00AF1FBD2883168728AD08031DC22816
:100180008910C3288914831689100000831209116D
:1001900083160911000083120910831609108312B7
:1001A0002E0EAF000F30AF052F08B00020202E0814
:1001B0000F39AF00B000202008002830A6000C3016
:1001C000A7000130A8000630A90009108316091005
:1001D000831289108316891083120911831609115D
:1001E00008128812081388130910891009110F309A
:1001F0008312AA000C200130A5002508033C031C33
:1002000009290330B00020200530AA000C20A50ADF
:10021000FD280230B00020200530AA000C20A501E6
:100220002508033C031C202926302507840083135E
:100230000008AA00AD012A08AE007F20A50A1029F7
:100240008A110A12222A2A0B262929294030AB00BA
:100250002A29AB0101302902AB072B088038AC00FA
:10026000AD012C08AE007F2008002808073A0319CA
:1002700043290B3A03194829063A03195029023A2F
:10028000031956295B290130A900AA0023216029FE
:10029000AD010130AE007F200230AA000C206029A1
:1002A0000130A9000230AA0023216029AD011030DD
:1002B000AE007F2060290130AD002808AE007F200D
:1002C00008000B08A5008B13831603178C170C145A
:1002D0000000000083120313A51B8B1703170C08E3
:1002E0007F390319B5290313A50003170D0803135C
:1002F000A60003170F080313A7002508A80035213F
:10030000260803178D000313270803178F00031314
:100310000B08A8008B13831603178C170C1400000E
:10032000000083120313A81B8B1703170C0D0E0D6F
:100330007F390319B5290313A50003170D0803130B
:10034000A60003170F080313A7002508A8003521EE
:10035000260803178D000313270803178F008D0A43
:1003600003198F0A03136129031703138A110A1251
:10037000452A2808F80127020318C1292708F70091
:10038000CD29F7010830A900A70DF70D280877023D
:100390000318F700F80DA90BC429080078082508F0
:1003A000A7006430A800B9217708A500780830308C
:1003B000031DE129A61CE829A619E829261A2030E0
:1003C000E429A61126122614F8077808A80035217A
:1003D0002508A7000A30A800B9217708A5007808E9
:1003E0003030031DF929A619FD29261CFD29261ADE
:1003F0002030F8077808A80035213030A5072508F7
:10040000A8003521080003081F398300A401A301B7
:10041000831603170908C039890003131F129F129E
:100420000030031788008312870188018901831334
:1004300000308316031388000910891009118911EF
:100440008312DD28A20A0430A500FA30AA000C208D
:10045000A50B252A22083B3C0318302AA10AA20139
:1004600021083B3C0318362AA00AA1012008183CA9
:10047000031CA0010130A900AA00232104300317A6
:100480008D0000308F00031361290430A900023071
:10049000AA0023212008A5000130A600CE210730A4
:1004A000A9000230AA0023212108A5000130A600DE
:1004B000CE210A30A9000230AA0023212208A5007B
:0A04C0000130A600CE21222A6300BD
:04400E00E22F000796
:00000001FF
;PIC16F887
;CRC=CE50  CREATED="01-Apr-26 18:32"
