:1000000002308A001C2A00000A108A100A11820796
:10001000C034F934A434B034993492348234F8348E
:1000200080349034C8244527202AC1243A10201057
:1000300020102518B22A0000C8244527202AC124F0
:100040003A10201020102518B22A00002930840010
:1000500083130008031939280630F800F701F70B5D
:100060002F28F80B2E287B30F700F70B3528800B54
:100070002C28080030183E2808123F28081683163E
:1000800008128312B018462888124728881683164B
:100090008812831230194E2808134F280817831628
:1000A00008138312B0195628881357288817831607
:1000B0008813000083120814831608100330F70019
:1000C000F70B6028831208108316081083120800AB
:1000D000B1018316081600308312081A0130B104EA
:1000E0008316881600308312881A0130F700031037
:1000F000F70D7708B1048316081700308312081B28
:100100000130F700F70DF70DFC30F7057708B10463
:100110008316881700308312881B0130F700F70D13
:10012000F70DF70DF830F7057708B1043108F8003E
:10013000080083160810881008118312881083168F
:100140008810081688160817881783120815831652
:10015000081100008312081483160810000083128F
:1001600068207808B0000810831608100000831279
:10017000081483160810BC28BD28000083126820CC
:100180007808AF00081083160810081288120813A8
:1001900088138312300EF700F030F70577082F042C
:1001A000F8007808AF00AF1FD7288316A128AD0844
:1001B000031DDC288810DD288814831688100000B1
:1001C0008312081183160811000083120810831689
:1001D000081083122E0EAF000F30AF052F08B000AD
:1001E0003A202E080F39AF00B0003A20080028301E
:1001F000A5000C30A6000130A7000630A8000810AA
:100200008316081083128810831688108312081131
:100210008316081108128812081388130810881012
:1002200008110F308312A90026200130A4002408F1
:10023000033C031C23290330B0003A200530A900F9
:100240002620A40A17290230B0003A200530A90060
:100250002620A4012408033C031C3A292530240746
:10026000840083130008A900AD012908AE0099207D
:10027000A40A2A298A110A12522A2A0B4029432940
:100280004030AB004429AB0101302902AB072B08F9
:100290008038AC00AD012C08AE0099200800280879
:1002A000073A03195D290B3A03196229063A031923
:1002B0006A29023A0319702975290130A900AA0098
:1002C0003D217A29AD010130AE0099200230A9000C
:1002D00026207A290130A9000230AA003D217A297E
:1002E000AD011030AE0099207A290130AD00280808
:1002F000AE00992008000B08A5008B138316031786
:100300008C170C140000000083120313A51B8B171D
:100310000318B22903170C087F390313A50003172C
:100320000D080313A60003170F080313A7002508E1
:10033000A8004F21260803178D0003132708031771
:100340008F0003130B08A8008B13831603178C1759
:100350000C140000000083120313A81B8B17A40BBE
:10036000B229D12903170C0D0E0D7F390313A500F7
:1003700003170D080313A60003170F080313A700A4
:100380002508A8004F21260803178D00031327080E
:1003900003178F008D0A03198F0A03100313A40B90
:1003A0007B2908002708F80126020318DA29260805
:1003B000F700E629F7010830A800A60DF70D270879
:1003C00077020318F700F80DA80BDD29080078085C
:1003D0002408A6006430A700D2217708A40078087A
:1003E0003030031DFA29A51C012AA519012A251A56
:1003F0002030FD29A51125122514F8077808A8003A
:100400004F212408A6000A30A700D2217708A400B3
:1004100078083030031D122AA519162A251C162A21
:10042000251A2030F8077808A8004F213030A4079B
:100430002408A8004F21080003081F398300201456
:10044000A101A201FF30A300831603170908C039D8
:10045000890003131F129F120030031788008312B4
:1004600087018801890183130030831603138500F7
:10047000860087008312A30083168800091489145C
:10048000091589158601FF30831286000030A3000C
:1004900083168701FF3083128700831605108312AD
:1004A0000510F7280130A900AA003D2112300317DA
:1004B0008D0000308F0003100E300313A4007B2149
:1004C0002108A4000130A500E7210130A900023075
:1004D000AA003D211C3003178D0000308F0003104F
:1004E0000E300313A4007B212208A4000130A500D4
:1004F000E72183160914831209188D2A1430A900E4
:10050000262083160914831209188D2A0130A006AB
:10051000831609148312091C882A201CC62A8316F4
:10052000891483128918C52A1430A900262083163D
:10053000891483128918C52A0530A10721083C3C7B
:100540000318A42A0530A1002108A6000A30A7003C
:10055000D22178080420A40083168601831224087F
:1005600086002108A6000A30A700D22177080420BF
:10057000A4000030A300831687018312240887009B
:10058000831689148312891CC02AE92AA20A04301E
:10059000A400FA30A9002620A40BC92A22082102AF
:1005A0000318E92AA20183160510831205140230EC
:1005B000A400FA30A9002620A40BD92A831605101E
:1005C000831205100230A400FA30A9002620A40BE3
:0605D000E42A522A630038
:04400E00E22F000796
:00000001FF
;PIC16F887
;CRC=DD01  CREATED="02-Apr-26 00:03"
