:1000000002308A001B2A00000A108A100A11820797
:10001000C034F934A434B034993492348234F8348E
:1000200080349034C3204910C420541D2010201067
:10003000A01230195500C8244527202AC1243A109F
:10004000201020102518B22A0000293084008313C4
:100050000008031938280630F800F701F70B2E289E
:10006000F80B2D287B30F700F70B3428800B2B285A
:10007000080030183D2808123E280816831608127A
:100080008312B018452888124628881683168812CD
:10009000831230194D2808134E28081783160813A9
:1000A0008312B01955288813562888178316881389
:1000B000000083120814831608100330F700F70BB2
:1000C0005F28831208108316081083120800B101FC
:1000D0008316081600308312081A0130B104831603
:1000E000881600308312881A0130F7000310F70DCC
:1000F0007708B1048316081700308312081B0130FB
:10010000F700F70DF70DFC30F7057708B1048316FB
:10011000881700308312881B0130F700F70DF70DA8
:10012000F70DF830F7057708B1043108F80008003A
:1001300083160810881008118312881083168810FF
:1001400008168816081788178312081583160811D1
:100150000000831208148316081000008312672021
:100160007808B000081083160810000083120814E5
:1001700083160810BB28BC2800008312672078086B
:10018000AF0008108316081008128812081388138D
:100190008312300EF700F030F70577082F04F800CF
:1001A0007808AF00AF1FD6288316A028AD08031D1E
:1001B000DB288810DC28881483168810000083123E
:1001C0000811831608110000831208108316081006
:1001D00083122E0EAF000F30AF052F08B00039206C
:1001E0002E080F39AF00B000392008002830A500D4
:1001F0000C30A6000130A7000630A80008108316B6
:100200000810831288108316881083120811831631
:100210000811081288120813881308108810081192
:100220000F308312A90025200130A4002408033CCC
:10023000031C22290330B00039200530A9002520F5
:10024000A40A16290230B00039200530A900252063
:10025000A4012408033C031C392925302407840009
:1002600083130008A900AD012908AE009820A40A54
:1002700029298A110A12512A2A0B3F294229403082
:10028000AB004329AB0101302902AB072B088038B2
:10029000AC00AD012C08AE00982008002808073AF1
:1002A00003195C290B3A03196129063A03196929D4
:1002B000023A03196F2974290130A900AA003C21D0
:1002C0007929AD010130AE0098200230A900252027
:1002D00079290130A9000230AA003C217929AD0119
:1002E0001030AE00982079290130AD002808AE000A
:1002F000982008000B08A5008B13831603178C1792
:100300000C140000000083120313A51B8B170318A5
:10031000B12903170C087F390313A50003170D0833
:100320000313A60003170F080313A7002508A8004E
:100330004E21260803178D000313270803178F008B
:1003400003130B08A8008B13831603178C170C14C8
:100350000000000083120313A81B8B17A40BB12904
:10036000D02903170C0D0E0D7F390313A5000317B9
:100370000D080313A60003170F080313A700250891
:10038000A8004E21260803178D0003132708031722
:100390008F008D0A03198F0A03100313A40B7A2907
:1003A00008002708F80126020318D9292608F700B3
:1003B000E529F7010830A800A60DF70D27087702F8
:1003C0000318F700F80DA80BDC29080078082408AA
:1003D000A6006430A700D1217708A4007808303047
:1003E000031DF929A51C002AA519002A251A203069
:1003F000FC29A51125122514F8077808A8004E211C
:100400002408A6000A30A700D1217708A4007808A4
:100410003030031D112AA519152A251C152A251A65
:100420002030F8077808A8004E213030A4072408AF
:10043000A8004E21080003081F3983002014A101E1
:10044000A201FF30A300831603170908C0398900F1
:1004500003131F129F1200300317880083128701B5
:1004600088018901831300308316031385008600F9
:1004700087008312A30083168800091489140915C4
:1004800089158601FF30831286000030A300831691
:100490008701FF3083128700831605108312051031
:1004A000F6280130A900AA003C21123003178D0064
:1004B00000308F0003100D300313A4007A212108AF
:1004C000A4000130A500E6210130A9000230AA00F5
:1004D0003C211B3003178D0000308F0003100E30BD
:1004E0000313A4007A212208A4000130A500E6210C
:1004F0002108A6000A30A700D12178080420A40012
:10050000831686018312240886002108A6000A307B
:10051000A700D12177080420A4000030A30083168F
:10052000870183122408870083160914831209188F
:10053000A82A1430A900252083160914831209184B
:10054000A82A0130A006831609148312091CA32AC5
:10055000201CC32A8316891483128918C22A1430D6
:10056000A90025208316891483128918C22A053010
:10057000A10721083C3C031CA101831689148312A6
:10058000891CBD2AE62AA20A0430A400FA30A90078
:100590002520A40BC62A220821020318E62AA2015C
:1005A00083160510831205140230A400FA30A90046
:1005B0002520A40BD62A83160510831205100230BD
:1005C000A400FA30A9002520A40BE12A512A6300D7
:04400E00E22F000796
:00000001FF
;PIC16F887
;CRC=2627  CREATED="02-Apr-26 00:08"
