:1000000000308A0018280000233084008313000881
:10001000031917280230F800F701F70B0D28F80B29
:100020000C289730F700F70B1328800B0A280800DC
:1000300003081F398300713083168F0090010F0869
:100040008312A001A101831603170908C039890092
:1000500003131F129F1200300317880083128701B9
:1000600088018901831300308316031388008801F7
:10007000831288010430A200FA30A3000420A20BEE
:100080003C28A0012008073C031C58280310210C21
:10009000803EA10083168801831221088800023067
:1000A000A200FA30A3000420A20B5128A00A422883
:1000B000A0012008073C031C6D280310A10D831626
:1000C00088018312210888000230A200FA30A300C0
:0E00D0000420A20B6628A00A592841286300CC
:04400E00E52F000793
:00000001FF
;PIC16F887
;CRC=2462  CREATED="01-Apr-26 12:22"
