:1000000000308A0018280000223084008313000882
:10001000031917280230F800F701F70B0D28F80B29
:100020000C289730F700F70B1328800B0A280800DC
:1000300003081F398300713083168F0090010F0869
:100040008312A001831603170908C039890003131E
:100050001F129F1200300317880083128701880146
:1000600089018313003083160313880088018312EB
:1000700088010430A100FA30A2000420A10B3B2823
:10008000A0012008023C031C5E2883168801FF3073
:10009000831288000230A100FA30A2000420A10BD4
:1000A0004C2883168801831288010230A100FA309F
:1000B000A2000420A10B5728A00A4128831688011A
:1000C0008130831288000430A100FA30A20004209D
:0800D000A10B65284028630024
:04400E00E52F000793
:00000001FF
;PIC16F887
;CRC=51AA  CREATED="01-Apr-26 12:02"
