:1000000002308A00052A00005328541D2518B22A00
:1000100020102010A029D025BA12301955002A30FE
:10002000840083130008031922280630F800F70122
:10003000F70B1828F80B17287B30F700F70B1E2852
:10004000800B1528080031182728081228280816C0
:10005000831608128312B1182F28881230288816A8
:100060008316881283123119372808133828081785
:10007000831608138312B1193F2888134028881764
:1000800083168813000083120914831609100330A5
:10009000F700F70B49288312091083160910831201
:1000A0000800B2018316081600308312081A0130C6
:1000B000B2048316881600308312881A0130F700C4
:1000C0000310F70D7708B204831608170030831267
:1000D000081B0130F700F70DF70DFC30F705770826
:1000E000B2048316881700308312881B0130F70092
:1000F000F70DF70DF70DF830F7057708B204320861
:10010000F80008008316091089100911831289105C
:100110008316891008168816081788178312091580
:1001200083160911000083120914831609100000B8
:10013000831251207808B1000910831609100000BD
:100140008312091483160910A528A628000083121B
:1001500051207808B000091083160910081288127F
:10016000081388138312310EF700F030F705770873
:100170003004F8007808B000B01FC02883168A2821
:10018000AE08031DC5288910C62889148316891056
:10019000000083120911831609110000831209104F
:1001A0008316091083122F0EB0000F30B0053008EF
:1001B000B10023202F080F39B000B1002320080020
:1001C0002830A6000C30A7000130A8000630A90096
:1001D000091083160910831289108316891083125F
:1001E00009118316091108128812081388130910BF
:1001F000891009110F308312AA000F200130A500C9
:100200002508033C031C0C290330B10023200530D2
:10021000AA000F20A50A00290230B10023200530D2
:10022000AA000F20A5012508033C031C2329263022
:100230002507840083130008AA00AE012A08AF0036
:100240008220A50A13298A110A122C2A2B0B29298C
:100250002C294030AC002D29AC0101302A02AC071A
:100260002C088038AD00AE012D08AF0082200800B8
:100270002908073A031946290B3A03194B29063A6C
:1002800003195329023A031959295E290130AA009A
:10029000AB0026216329AE010130AF00822002307D
:1002A000AA000F2063290130AA000230AB002621EA
:1002B0006329AE011030AF00822063290130AE0007
:1002C0002908AF00822008000B08A6008B138316B4
:1002D00003178C170C140000000083120313A61BD5
:1002E0008B1703189B2903170C087F390313A600EB
:1002F00003170D080313A70003170F080313A80023
:100300002608A9003821270803178D0003132808A1
:1003100003178F0003130B08A9008B138316031711
:100320008C170C140000000083120313A91B8B17F9
:10033000A50B9B29BA2903170C0D0E0D7F3903134A
:10034000A60003170D080313A70003170F080313D4
:10035000A8002608A9003821270803178D000313D9
:10036000280803178F008D0A03198F0A031003133F
:10037000A50B642908002808F80127020318C329DF
:100380002708F700CF29F7010830A900A70DF70DBE
:10039000280877020318F700F80DA90BC6290800F2
:1003A00078082508A7006430A800BB217708A500BD
:1003B00078083030031DE329A61CEA29A619EA298A
:1003C000261A2030E629A61126122614F8077808E6
:1003D000A90038212508A7000A30A800BB2177080A
:1003E000A50078083030031DFB29A619FF29261C1B
:1003F000FF29261A2030F8077808A9003821303064
:10040000A5072508A9003821080003081F39830023
:100410001030A0002030A1001130A2002030A30035
:100420002D30A400831603170908C039890003136F
:100430001F129F1200300317880083128701880162
:100440008901831300308316031388000910891073
:10045000091189118312E0280130AA00AB0026217E
:10046000043003178D0000308F0003100430031395
:10047000A50064212008A5000130A600D021083085
:1004800003178D0000308F00031009300313A500FF
:1004900064212108A5000130A600D0210430AA0063
:1004A0000230AB0026212208A5000130A600D02191
:1004B0002030A90038212308A5000130A600D02152
:1004C0002030A90038212408A5000130A600D02141
:0404D0002C2A63006F
:04400E00E22F000796
:00000001FF
;PIC16F887
;CRC=3A54  CREATED="01-Apr-26 17:33"
