:1000000002308A000D2A000050244F274710D327C2
:100010003A1020102010A012B01855004E24C9220A
:100020005410C4273A1020102518B22A0000273097
:1000300084008313000803192A280630F800F7010A
:10004000F70B2028F80B1F287B30F700F70B26282A
:10005000800B1D2808002E182F280812302808169B
:10006000831608128312AE1837288812382888168B
:100070008316881283122E193F2808134028081768
:10008000831608138312AE19472888134828881747
:100090008316881300008312091483160910033095
:1000A000F700F70B512883120910831609108312E9
:1000B0000800AF018316081600308312081A0130B9
:1000C000AF048316881600308312881A0130F700B7
:1000D0000310F70D7708AF0483160817003083125A
:1000E000081B0130F700F70DF70DFC30F705770816
:1000F000AF048316881700308312881B0130F70085
:10010000F70DF70DF70DF830F7057708AF042F0856
:10011000F80008008316091089100911831289104C
:100120008316891008168816081788178312091570
:1001300083160911000083120914831609100000A8
:10014000831259207808AE000910831609100000A8
:100150008312091483160910AD28AE2800008312FB
:1001600059207808AD00091083160910081288126A
:100170000813881383122E0EF700F030F705770866
:100180002D04F8007808AD00AD1FC828831692280A
:10019000AB08031DCD288910CE2889148316891039
:1001A000000083120911831609110000831209103F
:1001B0008316091083122C0EAD000F30AD052D08EB
:1001C000AE002B202C080F39AD00AE002B2008000C
:1001D0002830A3000C30A4000130A5000630A60092
:1001E000091083160910831289108316891083124F
:1001F00009118316091108128812081388130910AF
:10020000891009110F308312A70017200130A200B6
:100210002208033C031C14290330AE002B200530B8
:10022000A7001720A20A08290230AE002B200530B3
:10023000A7001720A2012208033C031C2B2923300E
:100240002207840083130008A700AB012708AC0035
:100250008A20A20A1B298A110A122E2A280B312968
:1002600034294030A9003529A90101302702A90706
:1002700029088038AA00AB012A08AC008A200800AF
:100280002608073A03194E290B3A03195329063A4F
:1002900003195B29023A0319612966290130A70075
:1002A000A8002E216B29AB010130AC008A2002305E
:1002B000A70017206B290130A7000230A8002E21CB
:1002C0006B29AB011030AC008A206B290130AB00E8
:1002D0002608AC008A2008000B08A3008B138316A5
:1002E00003178C170C140000000083120313A31BC8
:1002F0008B170318A32903170C087F390313A300D6
:1003000003170D080313A40003170F080313A50018
:100310002308A6004021240803178D000313250895
:1003200003178F0003130B08A6008B138316031704
:100330008C170C140000000083120313A61B8B17EC
:10034000A20BA329C22903170C0D0E0D7F3903132D
:10035000A30003170D080313A40003170F080313CA
:10036000A5002308A6004021240803178D000313CD
:10037000250803178F008D0A03198F0A0310031332
:10038000A20B6C2908002508F80124020318CB29C8
:100390002408F700D729F7010830A600A40DF70DAF
:1003A000250877020318F700F80DA60BCE290800E0
:1003B00078082208A4006430A500C3217708A200B1
:1003C00078083030031DEB29A31CF229A319F22968
:1003D000231A2030EE29A31123122314F8077808DA
:1003E000A60040212208A4000A30A500C3217708F6
:1003F000A20078083030031D032AA319072A231C02
:10040000072A231A2030F8077808A6004021303048
:10041000A2072208A6004021080003081F39830014
:100420000230A0002030A100831603170908C0394C
:10043000890003131F129F120030031788008312D4
:100440008701880189018313003083160313880014
:1004500009108910091189118312E8280130A700B9
:10046000A8002E21043003178D0000308F000310E8
:100470000F300313A2006C212008A2000830A30053
:10048000D8210130A7000230A8002E210E3003171A
:100490008D0000308F0003100C300313A2006C217C
:1004A0002108A2000130A300D8210F30A70002309C
:1004B000A8002E21DF30A60040214330A6004021B5
:0404C0002E2A63007D
:04400E00E22F000796
:00000001FF
;PIC16F887
;CRC=3820  CREATED="01-Apr-26 17:23"
