:1000000000308A003B2800000A108A100A1182077B
:10001000C034F934A434B034993492348234F8348E
:10002000803490342408F801230203181A28230886
:10003000F7002628F7010830A500A30DF70D2408C6
:1000400077020318F700F80DA50B1D2808002430CF
:1000500084008313000803193A280630F800F701DA
:10006000F70B3028F80B2F287B30F700F70B3628DA
:10007000800B2D28080003081F3983002014A101DC
:10008000FF30A200831603170908C0398900031343
:100090001F129F1200300317880083128701880106
:1000A00089018313003083160313860087008312AF
:1000B000A200831609148914091589158601C03018
:1000C000831286000030A20083168701C03083129D
:1000D000870020102108A3000A30A400122078080D
:1000E0000420A300831686018312230886002108BA
:1000F000A3000A30A400122077080420A3000030D7
:10010000A200831687018312230887000230A30010
:10011000FA30A4002720A30B882883160914831221
:100120000918A0281430A40027208316091483126C
:100130000918A0282010831609148312091C9B2873
:100140008316891483128918B3281430A400272039
:100150008316891483128918B328201483168914EE
:100160008312891CAE282018BD28A10A2108633CEF
:100170000318BC280130A100BF280018BD286A2838
:0201800063001A
:04400E00E22F000796
:00000001FF
;PIC16F887
;CRC=40C6  CREATED="02-Apr-26 11:37"
