:1000000000308A00282800000A108A100A1182078E
:10001000C034F934A434B034993492348234F8348E
:10002000803490342230840083130008031925287B
:100030000630F800F701F70B1B28F80B1A287B3065
:10004000F700F70B2128800B18288A110A1258286C
:1000500003081F398300A001831603170908C0395C
:10006000890003131F129F120030031788008312A8
:1000700087018801890183130030831603138800E8
:100080008801C0308312880020080420A100831654
:1000900088018312210888002008093C031D52288A
:1000A000A0015328A00A0230A100FA30A2001228B1
:0800B000A10B55284428630050
:04400E00E22F000796
:00000001FF
;PIC16F887
;CRC=716D  CREATED="02-Apr-26 23:19"
