:1000000001308A00BA2900004910CC27D622A02C42
:10001000CF2A000043245510C327A0264F002730C5
:10002000840083130008031922280630F800F70122
:10003000F70B1828F80B17287B30F700F70B1E2852
:10004000800B152808002D182728081228280816C4
:10005000831608128312AD182F28881230288816AC
:100060008316881283122D19372808133828081789
:10007000831608138312AD193F2888134028881768
:1000800083168813000083120914831609100330A5
:10009000F700F70B49288312091083160910831201
:1000A0000800AE018316081600308312081A0130CA
:1000B000AE048316881600308312881A0130F700C8
:1000C0000310F70D7708AE0483160817003083126B
:1000D000081B0130F700F70DF70DFC30F705770826
:1000E000AE048316881700308312881B0130F70096
:1000F000F70DF70DF70DF830F7057708AE042E0869
:10010000F80008008316091089100911831289105C
:100110008316891008168816081788178312091580
:1001200083160911000083120914831609100000B8
:10013000831251207808AD000910831609100000C1
:100140008312091483160910A528A628000083121B
:1001500051207808AC000910831609100812881283
:100160000813881383122D0EF700F030F705770877
:100170002C04F8007808AC00AC1FC02883168A282D
:10018000AA08031DC5288910C6288914831689105A
:10019000000083120911831609110000831209104F
:1001A0008316091083122B0EAC000F30AC052C08FF
:1001B000AD0023202B080F39AC00AD002320080030
:1001C0002830A3000C30A4000130A5000630A600A2
:1001D000091083160910831289108316891083125F
:1001E00009118316091108128812081388130910BF
:1001F000891009110F308312A7000F200130A200CF
:100200002208033C031C0C290330AD0023200530D9
:10021000A7000F20A20A00290230AD0023200530DC
:10022000A7000F20A2012208033C031C232923302E
:100230002207840083130008A700AA012708AB0047
:100240008220A20A13298A110A12D929270B2929E7
:100250002C294030A8002D29A80101302602A8072A
:1002600028088038A900AA012908AB0082200800CC
:100270002508073A031946290B3A03194B29063A70
:1002800003195329023A031959295E290130A6009E
:10029000A70026216329AA010130AB008220023089
:1002A000A7000F2063290130A6000230A7002621F5
:1002B0006329AA011030AB00822063290130AA0013
:1002C0002508AB00822008000B08A2008B138316C0
:1002D00003178C170C140000000083120313A21BD9
:1002E0008B1703170C087F390319B8290313A200D1
:1002F00003170D080313A30003170F080313A4002B
:100300002208A5003821230803178D0003132408B1
:1003100003178F0003130B08A5008B138316031715
:100320008C170C140000000083120313A51B8B17FD
:1003300003170C0D0E0D7F390319B8290313A20002
:1003400003170D080313A30003170F080313A400DA
:100350002208A5003821230803178D000313240861
:1003600003178F008D0A03198F0A031364290317DB
:100370000313080003081F398300A101A00183169D
:1003800003170908C039890003131F129F12003098
:1003900003178800831287018801890183130030C5
:1003A000831603138800091089100911891183121B
:1003B000E0280130A600A7002621043003178D0095
:1003C00000308F00031364210830A6000230A7001C
:1003D00026210A3003178D0000308F00031364219B
:0403E000D9296300B4
:04400E00E22F000796
:00000001FF
;PIC16F887
;CRC=49E7  CREATED="01-Apr-26 17:05"
