:1000000001308A00B3290000CD27490020102000CC
:10001000273084008313000803191B280630F800DA
:10002000F701F70B1128F80B10287B30F700F70BBE
:100030001728800B0E2808002D18202808122128C8
:100040000816831608128312AD182828881229284A
:1000500088168316881283122D1930280813312828
:100060000817831608138312AD1938288813392806
:100070008817831688130000831209148316091049
:100080000330F700F70B422883120910831609107A
:1000900083120800AE018316081600308312081A76
:1000A0000130AE048316881600308312881A01309E
:1000B000F7000310F70D7708AE0483160817003019
:1000C0008312081B0130F700F70DF70DFC30F70520
:1000D0007708AE048316881700308312881B01301E
:1000E000F700F70DF70DF70DF830F7057708AE04B8
:1000F0002E08F800080083160910891009118312D0
:100100008910831689100816881608178817831215
:1001100009158316091100008312091483160910AA
:10012000000083124A207808AD00091083160910D8
:10013000000083120914831609109E289F280000CE
:1001400083124A207808AC0009108316091008129F
:1001500088120813881383122D0EF700F030F7056C
:1001600077082C04F8007808AC00AC1FB928831677
:100170008328AA08031DBE288910BF288914831666
:1001800089100000831209118316091100008312DF
:1001900009108316091083122B0EAC000F30AC052A
:1001A0002C08AD001C202B080F39AC00AD001C2022
:1001B00008002830A3000C30A4000130A500063050
:1001C000A60009108316091083128910831689105E
:1001D0008312091183160911081288120813881353
:1001E0000910891009110F308312A700082001306F
:1001F000A2002208033C031C05290330AD001C208B
:100200000530A7000820A20AF9280230AD001C2002
:100210000530A7000820A2012208033C031C1C296A
:1002200023302207840083130008A700AA012708AF
:10023000AB007B20A20A0C298A110A12DA29270BAB
:10024000222925294030A8002629A80101302602AC
:10025000A80728088038A900AA012908AB007B203C
:1002600008002508073A03193F290B3A03194429C6
:10027000063A03194C29023A031952295729013029
:10028000A600A7001F215C29AA010130AB007B203A
:100290000230A70008205C290130A6000230A70028
:1002A0001F215C29AA011030AB007B205C290130A2
:1002B000AA002508AB007B2008000B08A2008B13C6
:1002C000831603178C170C1400000000831203130D
:1002D000A21B8B1703170C087F390319B1290313CD
:1002E000A20003170D080313A30003170F0803133D
:1002F000A4002208A5003121230803178D00031351
:10030000240803178F0003130B08A5008B13831613
:1003100003178C170C140000000083120313A51B95
:100320008B1703170C0D0E0D7F390319B129031319
:10033000A20003170D080313A30003170F080313EC
:10034000A4002208A5003121230803178D00031300
:10035000240803178F008D0A03198F0A03135D29E0
:1003600003170313080003081F398300A101A0012C
:10037000831603170908C039890003131F129F123F
:1003800000300317880083128701880189018313D5
:1003900083160908C039890003131F129F12003009
:1003A00003178800031388000910891009118911A7
:1003B0008312D9280730A6000130A7001F2104307E
:1003C00003178D0000308F0003135D210230A2005F
:1003D000FA30A7000820A20BE8290730A600013058
:1003E000A7001F21063003178D0000308F00031374
:1003F0005D210230A200FA30A7000820A20BFB29E1
:04040000DA29630092
:04400E00E22F000796
:00000001FF
;PIC16F887
;CRC=E4C2  CREATED="01-Apr-26 16:44"
